:03000000020AC52C
:0C0AC500787FE4F6D8FD758111020AACC0
:100AAC00120AD175A0FF7FE87E03120A3BE4F5A081
:090ABC007FE87E03120A3B80EA88
:090AD1005389F0438909C28C220B
:040A3B00AB07AA0655
:100A3F00750B8F750A3675098E75083AAD07AC06BA
:100A4F00E41208A5AB0BAA0AA909A80812080312F9
:100A5F0008DE8F0F8E0E8D0D8C0CE4FBFA7901F8EA
:100A6F0012099B8F10E50FFFE50EFEE4120ADAE480
:100A7F00F511E511C395105023E4FFFE120ADAC3F6
:100A8F00E50F9400F50FE50E9400F50EE50D9401BA
:0C0A9F00F50DE50C9400F50C051180D657
:010AAB002228
:060ADA008F8AEEF58C226C
:10080000020954EC5D046005E85904700302094ACA
:10081000120915580460F6EC4860F2EC7004FDFE15
:10082000FF22C860DB2481C85009C39860025006CB
:100830000209519850CAF582E9294B4A7005AB82EA
:1008400002094075F0007C1A7880C3EF9BEE9AEDA8
:1008500099400DC3EF9BFFEE9AFEED99FDE842F043
:10086000DC23ACF0D0E0FFD0E0FED0E0FDAB822096
:10087000E7101BEB60BAEC2CFCEF33FFEE33FEED20
:1008800033FD02092CE803F830E705C0F075F000ED
:10089000EF2FFFEE33FEED33FD40B830E7C280AA04
:1008A00075F020800E75F010800575F0087D007ED3
:1008B000007F003392D530D503120A2DEC3340105F
:1008C000EF33FFEE33FEED33FDEC33FCD5F0ED22DC
:0E08D000E5F0247EA2D513CC92E7CDCEFF2218
:1008DE00EDD2E7CD33EC3392D524814006E4FFFE12
:1008EE00FDFC22FCE4CFCECDCC24E0501174FF8071
:1008FE00EDC3CC13CCCD13CDCE13CECF13CF04700E
:07090E00F030D5DE020A2DD6
:10091500E9D2E7C933E833F892D5EDD2E7CD33EC28
:0709250033FC5002B2D522A1
:10092C00EC30E7100FBF000C0EBE00080DBD00042C
:10093C000BEB6014A2D5EB13FCED92E7FD2274FFD8
:10094C00FCFDFEFF22E480F8A2D574FF13FC7D8031
:03095C00E480EF45
:10095F0075F008758200EF2FFFEE33FECD33CDCC4F
:10096F0033CCC58233C5829BED9AEC99E5829840D2
:10097F000CF582EE9BFEED9AFDEC99FC0FD5F0D6AF
:10098F00E4CEFBE4CDFAE4CCF9A88222B800C1B9D9
:10099F000059BA002DEC8BF084CFCECDFCE5F0CB17
:1009AF00F97818EF2FFFEE33FEED33FDEC33FCEB50
:1009BF0033FB10D703994004EB99FB0FD8E5E4F90B
:1009CF00FA227818EF2FFFEE33FEED33FDEC33FCF8
:1009DF00C933C910D7059BE99A4007EC9BFCE99AEC
:1009EF00F90FD8E0E4C9FAE4CCFB2275F010EF2F31
:1009FF00FFEE33FEED33FDCC33CCC833C810D70731
:100A0F009BEC9AE899400AED9BFDEC9AFCE899F86B
:0E0A1F000FD5F0DAE4CDFBE4CCFAE4C8F922FE
:0E0A2D00C3E49FFFE49EFEE49DFDE49CFC22DA
:00000001FF
